{
  "_format": "hh-sol-artifact-1",
  "contractName": "BankV2",
  "sourceName": "contracts/BankV2.sol",
  "abi": [
    {
      "inputs": [
        {
          "internalType": "address",
          "name": "_address",
          "type": "address"
        },
        {
          "internalType": "uint256",
          "name": "_timeInDays",
          "type": "uint256"
        },
        {
          "internalType": "uint256",
          "name": "_poolFunds",
          "type": "uint256"
        }
      ],
      "stateMutability": "nonpayable",
      "type": "constructor"
    },
    {
      "anonymous": false,
      "inputs": [
        {
          "indexed": true,
          "internalType": "address",
          "name": "_depositor",
          "type": "address"
        },
        {
          "indexed": true,
          "internalType": "uint256",
          "name": "_amount",
          "type": "uint256"
        }
      ],
      "name": "Deposit",
      "type": "event"
    },
    {
      "anonymous": false,
      "inputs": [
        {
          "indexed": true,
          "internalType": "address",
          "name": "_account",
          "type": "address"
        },
        {
          "indexed": true,
          "internalType": "uint256",
          "name": "_amount",
          "type": "uint256"
        }
      ],
      "name": "WithdrawRewards",
      "type": "event"
    },
    {
      "anonymous": false,
      "inputs": [
        {
          "indexed": true,
          "internalType": "address",
          "name": "_account",
          "type": "address"
        },
        {
          "indexed": true,
          "internalType": "uint256",
          "name": "_amount",
          "type": "uint256"
        }
      ],
      "name": "WithdrawStaked",
      "type": "event"
    },
    {
      "inputs": [
        {
          "internalType": "uint256",
          "name": "_amount",
          "type": "uint256"
        }
      ],
      "name": "deposit",
      "outputs": [],
      "stateMutability": "nonpayable",
      "type": "function"
    },
    {
      "inputs": [],
      "name": "depositWindowEnds",
      "outputs": [
        {
          "internalType": "uint256",
          "name": "",
          "type": "uint256"
        }
      ],
      "stateMutability": "view",
      "type": "function"
    },
    {
      "inputs": [],
      "name": "getRewardBalance",
      "outputs": [
        {
          "internalType": "uint256",
          "name": "",
          "type": "uint256"
        }
      ],
      "stateMutability": "nonpayable",
      "type": "function"
    },
    {
      "inputs": [],
      "name": "getStakedBalance",
      "outputs": [
        {
          "internalType": "uint256",
          "name": "",
          "type": "uint256"
        }
      ],
      "stateMutability": "view",
      "type": "function"
    },
    {
      "inputs": [],
      "name": "getTotalBalance",
      "outputs": [
        {
          "internalType": "uint256",
          "name": "",
          "type": "uint256"
        }
      ],
      "stateMutability": "view",
      "type": "function"
    },
    {
      "inputs": [],
      "name": "rewardpool",
      "outputs": [
        {
          "internalType": "uint256",
          "name": "",
          "type": "uint256"
        }
      ],
      "stateMutability": "view",
      "type": "function"
    },
    {
      "inputs": [],
      "name": "timePeriodValue",
      "outputs": [
        {
          "internalType": "uint256",
          "name": "",
          "type": "uint256"
        }
      ],
      "stateMutability": "view",
      "type": "function"
    },
    {
      "inputs": [
        {
          "internalType": "uint256",
          "name": "_amount",
          "type": "uint256"
        }
      ],
      "name": "withdraw",
      "outputs": [],
      "stateMutability": "nonpayable",
      "type": "function"
    },
    {
      "inputs": [],
      "name": "withdrawReward",
      "outputs": [],
      "stateMutability": "nonpayable",
      "type": "function"
    }
  ],
  "bytecode": "0x60806040523480156200001157600080fd5b5060405162001d3738038062001d378339818101604052810190620000379190620000fc565b82600760006101000a81548173ffffffffffffffffffffffffffffffffffffffff021916908373ffffffffffffffffffffffffffffffffffffffff1602179055506018603c80846200008a9190620001af565b620000969190620001af565b620000a29190620001af565b60068190555060065442620000b8919062000152565b60058190555080600481905550505050620002b1565b600081519050620000df816200027d565b92915050565b600081519050620000f68162000297565b92915050565b6000806000606084860312156200011257600080fd5b60006200012286828701620000ce565b93505060206200013586828701620000e5565b92505060406200014886828701620000e5565b9150509250925092565b60006200015f8262000244565b91506200016c8362000244565b9250827fffffffffffffffffffffffffffffffffffffffffffffffffffffffffffffffff03821115620001a457620001a36200024e565b5b828201905092915050565b6000620001bc8262000244565b9150620001c98362000244565b9250817fffffffffffffffffffffffffffffffffffffffffffffffffffffffffffffffff04831182151516156200020557620002046200024e565b5b828202905092915050565b60006200021d8262000224565b9050919050565b600073ffffffffffffffffffffffffffffffffffffffff82169050919050565b6000819050919050565b7f4e487b7100000000000000000000000000000000000000000000000000000000600052601160045260246000fd5b620002888162000210565b81146200029457600080fd5b50565b620002a28162000244565b8114620002ae57600080fd5b50565b611a7680620002c16000396000f3fe608060405234801561001057600080fd5b50600436106100935760003560e01c80634f51d172116100665780634f51d1721461010e5780635e42b4551461012c578063769658671461014a578063b6b55f2514610168578063c885bc581461018457610093565b806312b583491461009857806318f229c6146100b65780632e1a7d4d146100d457806339608e3f146100f0575b600080fd5b6100a061018e565b6040516100ad91906116a3565b60405180910390f35b6100be610197565b6040516100cb91906116a3565b60405180910390f35b6100ee60048036038101906100e991906114e4565b61019d565b005b6100f86108d9565b60405161010591906116a3565b60405180910390f35b6101166108df565b60405161012391906116a3565b60405180910390f35b6101346108e5565b60405161014191906116a3565b60405180910390f35b610152610f17565b60405161015f91906116a3565b60405180910390f35b610182600480360381019061017d91906114e4565b610f5e565b005b61018c6110aa565b005b60008054905090565b60065481565b336000600160003373ffffffffffffffffffffffffffffffffffffffff1673ffffffffffffffffffffffffffffffffffffffff1681526020019081526020016000205411610220576040517f08c379a000000000000000000000000000000000000000000000000000000000815260040161021790611623565b60405180910390fd5b60006005544261023091906117b0565b9050600060065460026102439190611756565b9050600060065460036102569190611756565b9050600060065460046102699190611756565b905082841015801561027a57508184105b156103e6576001600360003373ffffffffffffffffffffffffffffffffffffffff1673ffffffffffffffffffffffffffffffffffffffff1681526020019081526020016000205414610301576040517f08c379a00000000000000000000000000000000000000000000000000000000081526004016102f890611683565b60405180910390fd5b610349600360003373ffffffffffffffffffffffffffffffffffffffff1673ffffffffffffffffffffffffffffffffffffffff168152602001908152602001600020546112de565b600260003373ffffffffffffffffffffffffffffffffffffffff1673ffffffffffffffffffffffffffffffffffffffff16815260200190815260200160002081905550600360003373ffffffffffffffffffffffffffffffffffffffff1673ffffffffffffffffffffffffffffffffffffffff16815260200190815260200160002060008154809291906103dc9061182c565b9190505550610783565b8184101580156103f557508084105b156105c1576002600360003373ffffffffffffffffffffffffffffffffffffffff1673ffffffffffffffffffffffffffffffffffffffff16815260200190815260200160002054111561047d576040517f08c379a000000000000000000000000000000000000000000000000000000000815260040161047490611663565b60405180910390fd5b5b6002600360003373ffffffffffffffffffffffffffffffffffffffff1673ffffffffffffffffffffffffffffffffffffffff16815260200190815260200160002054116105bc5761050d600360003373ffffffffffffffffffffffffffffffffffffffff1673ffffffffffffffffffffffffffffffffffffffff168152602001908152602001600020546112de565b600260003373ffffffffffffffffffffffffffffffffffffffff1673ffffffffffffffffffffffffffffffffffffffff168152602001908152602001600020600082825461055b91906116cf565b92505081905550600360003373ffffffffffffffffffffffffffffffffffffffff1673ffffffffffffffffffffffffffffffffffffffff16815260200190815260200160002060008154809291906105b29061182c565b919050555061047e565b610782565b60038060003373ffffffffffffffffffffffffffffffffffffffff1673ffffffffffffffffffffffffffffffffffffffff168152602001908152602001600020541115610643576040517f08c379a000000000000000000000000000000000000000000000000000000000815260040161063a90611643565b60405180910390fd5b5b60038060003373ffffffffffffffffffffffffffffffffffffffff1673ffffffffffffffffffffffffffffffffffffffff1681526020019081526020016000205411610781576106d2600360003373ffffffffffffffffffffffffffffffffffffffff1673ffffffffffffffffffffffffffffffffffffffff168152602001908152602001600020546112de565b600260003373ffffffffffffffffffffffffffffffffffffffff1673ffffffffffffffffffffffffffffffffffffffff168152602001908152602001600020600082825461072091906116cf565b92505081905550600360003373ffffffffffffffffffffffffffffffffffffffff1673ffffffffffffffffffffffffffffffffffffffff16815260200190815260200160002060008154809291906107779061182c565b9190505550610644565b5b5b60008690506000965080600160003373ffffffffffffffffffffffffffffffffffffffff1673ffffffffffffffffffffffffffffffffffffffff16815260200190815260200160002060008282546107db91906117b0565b92505081905550806000808282546107f391906117b0565b92505081905550803373ffffffffffffffffffffffffffffffffffffffff167f1fe665070598cad3c4cc651126f3f92b7b48ae461c589b6f8999bac076befd3f60405160405180910390a3600090506000600160003373ffffffffffffffffffffffffffffffffffffffff1673ffffffffffffffffffffffffffffffffffffffff1681526020019081526020016000205414156108d0576000600360003373ffffffffffffffffffffffffffffffffffffffff1673ffffffffffffffffffffffffffffffffffffffff168152602001908152602001600020819055505b50505050505050565b60055481565b60045481565b6000336000600160003373ffffffffffffffffffffffffffffffffffffffff1673ffffffffffffffffffffffffffffffffffffffff168152602001908152602001600020541161096a576040517f08c379a000000000000000000000000000000000000000000000000000000000815260040161096190611623565b60405180910390fd5b60006005544261097a91906117b0565b90506000600654600261098d9190611756565b9050600060065460036109a09190611756565b9050600060065460046109b39190611756565b90508284101580156109c457508184105b15610b30576001600360003373ffffffffffffffffffffffffffffffffffffffff1673ffffffffffffffffffffffffffffffffffffffff1681526020019081526020016000205414610a4b576040517f08c379a0000000000000000000000000000000000000000000000000000000008152600401610a4290611683565b60405180910390fd5b610a93600360003373ffffffffffffffffffffffffffffffffffffffff1673ffffffffffffffffffffffffffffffffffffffff168152602001908152602001600020546112de565b600260003373ffffffffffffffffffffffffffffffffffffffff1673ffffffffffffffffffffffffffffffffffffffff16815260200190815260200160002081905550600360003373ffffffffffffffffffffffffffffffffffffffff1673ffffffffffffffffffffffffffffffffffffffff1681526020019081526020016000206000815480929190610b269061182c565b9190505550610ecd565b818410158015610b3f57508084105b15610d0b576002600360003373ffffffffffffffffffffffffffffffffffffffff1673ffffffffffffffffffffffffffffffffffffffff168152602001908152602001600020541115610bc7576040517f08c379a0000000000000000000000000000000000000000000000000000000008152600401610bbe90611663565b60405180910390fd5b5b6002600360003373ffffffffffffffffffffffffffffffffffffffff1673ffffffffffffffffffffffffffffffffffffffff1681526020019081526020016000205411610d0657610c57600360003373ffffffffffffffffffffffffffffffffffffffff1673ffffffffffffffffffffffffffffffffffffffff168152602001908152602001600020546112de565b600260003373ffffffffffffffffffffffffffffffffffffffff1673ffffffffffffffffffffffffffffffffffffffff1681526020019081526020016000206000828254610ca591906116cf565b92505081905550600360003373ffffffffffffffffffffffffffffffffffffffff1673ffffffffffffffffffffffffffffffffffffffff1681526020019081526020016000206000815480929190610cfc9061182c565b9190505550610bc8565b610ecc565b60038060003373ffffffffffffffffffffffffffffffffffffffff1673ffffffffffffffffffffffffffffffffffffffff168152602001908152602001600020541115610d8d576040517f08c379a0000000000000000000000000000000000000000000000000000000008152600401610d8490611643565b60405180910390fd5b5b60038060003373ffffffffffffffffffffffffffffffffffffffff1673ffffffffffffffffffffffffffffffffffffffff1681526020019081526020016000205411610ecb57610e1c600360003373ffffffffffffffffffffffffffffffffffffffff1673ffffffffffffffffffffffffffffffffffffffff168152602001908152602001600020546112de565b600260003373ffffffffffffffffffffffffffffffffffffffff1673ffffffffffffffffffffffffffffffffffffffff1681526020019081526020016000206000828254610e6a91906116cf565b92505081905550600360003373ffffffffffffffffffffffffffffffffffffffff1673ffffffffffffffffffffffffffffffffffffffff1681526020019081526020016000206000815480929190610ec19061182c565b9190505550610d8e565b5b5b600260003373ffffffffffffffffffffffffffffffffffffffff1673ffffffffffffffffffffffffffffffffffffffff168152602001908152602001600020549550505050505090565b6000600160003373ffffffffffffffffffffffffffffffffffffffff1673ffffffffffffffffffffffffffffffffffffffff16815260200190815260200160002054905090565b6005544210610fa2576040517f08c379a0000000000000000000000000000000000000000000000000000000008152600401610f9990611603565b60405180910390fd5b60008190506000915080600160003373ffffffffffffffffffffffffffffffffffffffff1673ffffffffffffffffffffffffffffffffffffffff1681526020019081526020016000206000828254610ffa91906116cf565b925050819055508060008082825461101291906116cf565b925050819055506001600360003373ffffffffffffffffffffffffffffffffffffffff1673ffffffffffffffffffffffffffffffffffffffff16815260200190815260200160002081905550803373ffffffffffffffffffffffffffffffffffffffff167fe1fffcc4923d04b559f4d29a8bfc6cda04eb5b0d3c460751c2402c5c5cc9109c60405160405180910390a3600090505050565b6000600260003373ffffffffffffffffffffffffffffffffffffffff1673ffffffffffffffffffffffffffffffffffffffff1681526020019081526020016000205490506000600260003373ffffffffffffffffffffffffffffffffffffffff1673ffffffffffffffffffffffffffffffffffffffff16815260200190815260200160002081905550600760009054906101000a900473ffffffffffffffffffffffffffffffffffffffff1673ffffffffffffffffffffffffffffffffffffffff1663095ea7b333836040518363ffffffff1660e01b81526004016111909291906115da565b602060405180830381600087803b1580156111aa57600080fd5b505af11580156111be573d6000803e3d6000fd5b505050506040513d601f19601f820116820180604052508101906111e291906114bb565b50600760009054906101000a900473ffffffffffffffffffffffffffffffffffffffff1673ffffffffffffffffffffffffffffffffffffffff1663a9059cbb33836040518363ffffffff1660e01b81526004016112409291906115da565b602060405180830381600087803b15801561125a57600080fd5b505af115801561126e573d6000803e3d6000fd5b505050506040513d601f19601f8201168201806040525081019061129291906114bb565b50803373ffffffffffffffffffffffffffffffffffffffff167faa1377f7ec93c239e959efa811f7b8554c036fd7a706c23e58024626a8f3db9660405160405180910390a36000905050565b6000600182141561136d576000606460146004546112fc9190611756565b6113069190611725565b90506000805482600160003373ffffffffffffffffffffffffffffffffffffffff1673ffffffffffffffffffffffffffffffffffffffff168152602001908152602001600020546113579190611756565b6113619190611725565b9050809250505061148c565b60028214156113fa5760006064601e6004546113899190611756565b6113939190611725565b90506000805482600160003373ffffffffffffffffffffffffffffffffffffffff1673ffffffffffffffffffffffffffffffffffffffff168152602001908152602001600020546113e49190611756565b6113ee9190611725565b9050809250505061148c565b6003821415611487576000606460326004546114169190611756565b6114209190611725565b90506000805482600160003373ffffffffffffffffffffffffffffffffffffffff1673ffffffffffffffffffffffffffffffffffffffff168152602001908152602001600020546114719190611756565b61147b9190611725565b9050809250505061148c565b600080fd5b919050565b6000815190506114a081611a12565b92915050565b6000813590506114b581611a29565b92915050565b6000602082840312156114cd57600080fd5b60006114db84828501611491565b91505092915050565b6000602082840312156114f657600080fd5b6000611504848285016114a6565b91505092915050565b611516816117e4565b82525050565b6000611529601c836116be565b9150611534826118d3565b602082019050919050565b600061154c6013836116be565b9150611557826118fc565b602082019050919050565b600061156f6023836116be565b915061157a82611925565b604082019050919050565b60006115926023836116be565b915061159d82611974565b604082019050919050565b60006115b56023836116be565b91506115c0826119c3565b604082019050919050565b6115d481611822565b82525050565b60006040820190506115ef600083018561150d565b6115fc60208301846115cb565b9392505050565b6000602082019050818103600083015261161c8161151c565b9050919050565b6000602082019050818103600083015261163c8161153f565b9050919050565b6000602082019050818103600083015261165c81611562565b9050919050565b6000602082019050818103600083015261167c81611585565b9050919050565b6000602082019050818103600083015261169c816115a8565b9050919050565b60006020820190506116b860008301846115cb565b92915050565b600082825260208201905092915050565b60006116da82611822565b91506116e583611822565b9250827fffffffffffffffffffffffffffffffffffffffffffffffffffffffffffffffff0382111561171a57611719611875565b5b828201905092915050565b600061173082611822565b915061173b83611822565b92508261174b5761174a6118a4565b5b828204905092915050565b600061176182611822565b915061176c83611822565b9250817fffffffffffffffffffffffffffffffffffffffffffffffffffffffffffffffff04831182151516156117a5576117a4611875565b5b828202905092915050565b60006117bb82611822565b91506117c683611822565b9250828210156117d9576117d8611875565b5b828203905092915050565b60006117ef82611802565b9050919050565b60008115159050919050565b600073ffffffffffffffffffffffffffffffffffffffff82169050919050565b6000819050919050565b600061183782611822565b91507fffffffffffffffffffffffffffffffffffffffffffffffffffffffffffffffff82141561186a57611869611875565b5b600182019050919050565b7f4e487b7100000000000000000000000000000000000000000000000000000000600052601160045260246000fd5b7f4e487b7100000000000000000000000000000000000000000000000000000000600052601260045260246000fd5b7f4465706f7369747320617265206c6f636b656420666f72206e6f772e00000000600082015250565b7f596f75207368616c6c206e6f7420506173732100000000000000000000000000600082015250565b7f5265776172647320666f7220523320616c72656164792064697374726962757460008201527f6564210000000000000000000000000000000000000000000000000000000000602082015250565b7f5265776172647320666f7220523220616c72656164792064697374726962757460008201527f6564210000000000000000000000000000000000000000000000000000000000602082015250565b7f5265776172647320666f7220523120616c72656164792064697374726962757460008201527f6564210000000000000000000000000000000000000000000000000000000000602082015250565b611a1b816117f6565b8114611a2657600080fd5b50565b611a3281611822565b8114611a3d57600080fd5b5056fea264697066735822122042cd25283b906057c5e3ef9e0f5a863fc61ef1d41b70688b20e638d2e50f138764736f6c63430008040033",
  "linkReferences": {},
  "deployedLinkReferences": {}
}