{
  "_format": "hh-sol-artifact-1",
  "contractName": "BankV2",
  "sourceName": "contracts/BankV2.sol",
  "abi": [
    {
      "inputs": [
        {
          "internalType": "address",
          "name": "_address",
          "type": "address"
        },
        {
          "internalType": "uint256",
          "name": "_timeInDays",
          "type": "uint256"
        },
        {
          "internalType": "uint256",
          "name": "_poolFunds",
          "type": "uint256"
        }
      ],
      "stateMutability": "nonpayable",
      "type": "constructor"
    },
    {
      "anonymous": false,
      "inputs": [
        {
          "indexed": true,
          "internalType": "address",
          "name": "_depositor",
          "type": "address"
        },
        {
          "indexed": true,
          "internalType": "uint256",
          "name": "_amount",
          "type": "uint256"
        }
      ],
      "name": "Deposit",
      "type": "event"
    },
    {
      "anonymous": false,
      "inputs": [
        {
          "indexed": true,
          "internalType": "address",
          "name": "_account",
          "type": "address"
        },
        {
          "indexed": true,
          "internalType": "uint256",
          "name": "_amount",
          "type": "uint256"
        }
      ],
      "name": "WithdrawRewards",
      "type": "event"
    },
    {
      "anonymous": false,
      "inputs": [
        {
          "indexed": true,
          "internalType": "address",
          "name": "_account",
          "type": "address"
        },
        {
          "indexed": true,
          "internalType": "uint256",
          "name": "_amount",
          "type": "uint256"
        }
      ],
      "name": "WithdrawStaked",
      "type": "event"
    },
    {
      "inputs": [
        {
          "internalType": "uint256",
          "name": "_amount",
          "type": "uint256"
        }
      ],
      "name": "deposit",
      "outputs": [],
      "stateMutability": "nonpayable",
      "type": "function"
    },
    {
      "inputs": [],
      "name": "depositWindowEnds",
      "outputs": [
        {
          "internalType": "uint256",
          "name": "",
          "type": "uint256"
        }
      ],
      "stateMutability": "view",
      "type": "function"
    },
    {
      "inputs": [],
      "name": "getRewardBalance",
      "outputs": [
        {
          "internalType": "uint256",
          "name": "",
          "type": "uint256"
        }
      ],
      "stateMutability": "nonpayable",
      "type": "function"
    },
    {
      "inputs": [],
      "name": "getStakedBalance",
      "outputs": [
        {
          "internalType": "uint256",
          "name": "",
          "type": "uint256"
        }
      ],
      "stateMutability": "view",
      "type": "function"
    },
    {
      "inputs": [],
      "name": "getTotalBalance",
      "outputs": [
        {
          "internalType": "uint256",
          "name": "",
          "type": "uint256"
        }
      ],
      "stateMutability": "view",
      "type": "function"
    },
    {
      "inputs": [],
      "name": "rewardpool",
      "outputs": [
        {
          "internalType": "uint256",
          "name": "",
          "type": "uint256"
        }
      ],
      "stateMutability": "view",
      "type": "function"
    },
    {
      "inputs": [],
      "name": "timePeriodValue",
      "outputs": [
        {
          "internalType": "uint256",
          "name": "",
          "type": "uint256"
        }
      ],
      "stateMutability": "view",
      "type": "function"
    },
    {
      "inputs": [
        {
          "internalType": "uint256",
          "name": "_amount",
          "type": "uint256"
        }
      ],
      "name": "withdraw",
      "outputs": [],
      "stateMutability": "nonpayable",
      "type": "function"
    },
    {
      "inputs": [],
      "name": "withdrawReward",
      "outputs": [],
      "stateMutability": "nonpayable",
      "type": "function"
    }
  ],
  "bytecode": "0x60806040523480156200001157600080fd5b5060405162001cb538038062001cb58339818101604052810190620000379190620000fc565b82600760006101000a81548173ffffffffffffffffffffffffffffffffffffffff021916908373ffffffffffffffffffffffffffffffffffffffff1602179055506018603c80846200008a9190620001af565b620000969190620001af565b620000a29190620001af565b60068190555060065442620000b8919062000152565b60058190555080600481905550505050620002b1565b600081519050620000df816200027d565b92915050565b600081519050620000f68162000297565b92915050565b6000806000606084860312156200011257600080fd5b60006200012286828701620000ce565b93505060206200013586828701620000e5565b92505060406200014886828701620000e5565b9150509250925092565b60006200015f8262000244565b91506200016c8362000244565b9250827fffffffffffffffffffffffffffffffffffffffffffffffffffffffffffffffff03821115620001a457620001a36200024e565b5b828201905092915050565b6000620001bc8262000244565b9150620001c98362000244565b9250817fffffffffffffffffffffffffffffffffffffffffffffffffffffffffffffffff04831182151516156200020557620002046200024e565b5b828202905092915050565b60006200021d8262000224565b9050919050565b600073ffffffffffffffffffffffffffffffffffffffff82169050919050565b6000819050919050565b7f4e487b7100000000000000000000000000000000000000000000000000000000600052601160045260246000fd5b620002888162000210565b81146200029457600080fd5b50565b620002a28162000244565b8114620002ae57600080fd5b50565b6119f480620002c16000396000f3fe608060405234801561001057600080fd5b50600436106100935760003560e01c80634f51d172116100665780634f51d1721461010e5780635e42b4551461012c578063769658671461014a578063b6b55f2514610168578063c885bc581461018457610093565b806312b583491461009857806318f229c6146100b65780632e1a7d4d146100d457806339608e3f146100f0575b600080fd5b6100a061018e565b6040516100ad9190611621565b60405180910390f35b6100be610197565b6040516100cb9190611621565b60405180910390f35b6100ee60048036038101906100e99190611462565b61019d565b005b6100f86108d9565b6040516101059190611621565b60405180910390f35b6101166108df565b6040516101239190611621565b60405180910390f35b6101346108e5565b6040516101419190611621565b60405180910390f35b610152610e95565b60405161015f9190611621565b60405180910390f35b610182600480360381019061017d9190611462565b610edc565b005b61018c611028565b005b60008054905090565b60065481565b336000600554426101ae919061172e565b9050600060065460026101c191906116d4565b9050600060065460036101d491906116d4565b9050600060065460046101e791906116d4565b90508284101580156101f857508184105b15610364576001600360003373ffffffffffffffffffffffffffffffffffffffff1673ffffffffffffffffffffffffffffffffffffffff168152602001908152602001600020541461027f576040517f08c379a000000000000000000000000000000000000000000000000000000000815260040161027690611601565b60405180910390fd5b6102c7600360003373ffffffffffffffffffffffffffffffffffffffff1673ffffffffffffffffffffffffffffffffffffffff1681526020019081526020016000205461125c565b600260003373ffffffffffffffffffffffffffffffffffffffff1673ffffffffffffffffffffffffffffffffffffffff16815260200190815260200160002081905550600360003373ffffffffffffffffffffffffffffffffffffffff1673ffffffffffffffffffffffffffffffffffffffff168152602001908152602001600020600081548092919061035a906117aa565b9190505550610701565b81841015801561037357508084105b1561053f576002600360003373ffffffffffffffffffffffffffffffffffffffff1673ffffffffffffffffffffffffffffffffffffffff1681526020019081526020016000205411156103fb576040517f08c379a00000000000000000000000000000000000000000000000000000000081526004016103f2906115e1565b60405180910390fd5b5b6002600360003373ffffffffffffffffffffffffffffffffffffffff1673ffffffffffffffffffffffffffffffffffffffff168152602001908152602001600020541161053a5761048b600360003373ffffffffffffffffffffffffffffffffffffffff1673ffffffffffffffffffffffffffffffffffffffff1681526020019081526020016000205461125c565b600260003373ffffffffffffffffffffffffffffffffffffffff1673ffffffffffffffffffffffffffffffffffffffff16815260200190815260200160002060008282546104d9919061164d565b92505081905550600360003373ffffffffffffffffffffffffffffffffffffffff1673ffffffffffffffffffffffffffffffffffffffff1681526020019081526020016000206000815480929190610530906117aa565b91905055506103fc565b610700565b60038060003373ffffffffffffffffffffffffffffffffffffffff1673ffffffffffffffffffffffffffffffffffffffff1681526020019081526020016000205411156105c1576040517f08c379a00000000000000000000000000000000000000000000000000000000081526004016105b8906115c1565b60405180910390fd5b5b60038060003373ffffffffffffffffffffffffffffffffffffffff1673ffffffffffffffffffffffffffffffffffffffff16815260200190815260200160002054116106ff57610650600360003373ffffffffffffffffffffffffffffffffffffffff1673ffffffffffffffffffffffffffffffffffffffff1681526020019081526020016000205461125c565b600260003373ffffffffffffffffffffffffffffffffffffffff1673ffffffffffffffffffffffffffffffffffffffff168152602001908152602001600020600082825461069e919061164d565b92505081905550600360003373ffffffffffffffffffffffffffffffffffffffff1673ffffffffffffffffffffffffffffffffffffffff16815260200190815260200160002060008154809291906106f5906117aa565b91905055506105c2565b5b5b6000600160003373ffffffffffffffffffffffffffffffffffffffff1673ffffffffffffffffffffffffffffffffffffffff1681526020019081526020016000205411610783576040517f08c379a000000000000000000000000000000000000000000000000000000000815260040161077a906115a1565b60405180910390fd5b60008690506000965080600160003373ffffffffffffffffffffffffffffffffffffffff1673ffffffffffffffffffffffffffffffffffffffff16815260200190815260200160002060008282546107db919061172e565b92505081905550806000808282546107f3919061172e565b92505081905550803373ffffffffffffffffffffffffffffffffffffffff167f1fe665070598cad3c4cc651126f3f92b7b48ae461c589b6f8999bac076befd3f60405160405180910390a3600090506000600160003373ffffffffffffffffffffffffffffffffffffffff1673ffffffffffffffffffffffffffffffffffffffff1681526020019081526020016000205414156108d0576000600360003373ffffffffffffffffffffffffffffffffffffffff1673ffffffffffffffffffffffffffffffffffffffff168152602001908152602001600020819055505b50505050505050565b60055481565b60045481565b6000336000600554426108f8919061172e565b90506000600654600261090b91906116d4565b90506000600654600361091e91906116d4565b90506000600654600461093191906116d4565b905082841015801561094257508184105b15610aae576001600360003373ffffffffffffffffffffffffffffffffffffffff1673ffffffffffffffffffffffffffffffffffffffff16815260200190815260200160002054146109c9576040517f08c379a00000000000000000000000000000000000000000000000000000000081526004016109c090611601565b60405180910390fd5b610a11600360003373ffffffffffffffffffffffffffffffffffffffff1673ffffffffffffffffffffffffffffffffffffffff1681526020019081526020016000205461125c565b600260003373ffffffffffffffffffffffffffffffffffffffff1673ffffffffffffffffffffffffffffffffffffffff16815260200190815260200160002081905550600360003373ffffffffffffffffffffffffffffffffffffffff1673ffffffffffffffffffffffffffffffffffffffff1681526020019081526020016000206000815480929190610aa4906117aa565b9190505550610e4b565b818410158015610abd57508084105b15610c89576002600360003373ffffffffffffffffffffffffffffffffffffffff1673ffffffffffffffffffffffffffffffffffffffff168152602001908152602001600020541115610b45576040517f08c379a0000000000000000000000000000000000000000000000000000000008152600401610b3c906115e1565b60405180910390fd5b5b6002600360003373ffffffffffffffffffffffffffffffffffffffff1673ffffffffffffffffffffffffffffffffffffffff1681526020019081526020016000205411610c8457610bd5600360003373ffffffffffffffffffffffffffffffffffffffff1673ffffffffffffffffffffffffffffffffffffffff1681526020019081526020016000205461125c565b600260003373ffffffffffffffffffffffffffffffffffffffff1673ffffffffffffffffffffffffffffffffffffffff1681526020019081526020016000206000828254610c23919061164d565b92505081905550600360003373ffffffffffffffffffffffffffffffffffffffff1673ffffffffffffffffffffffffffffffffffffffff1681526020019081526020016000206000815480929190610c7a906117aa565b9190505550610b46565b610e4a565b60038060003373ffffffffffffffffffffffffffffffffffffffff1673ffffffffffffffffffffffffffffffffffffffff168152602001908152602001600020541115610d0b576040517f08c379a0000000000000000000000000000000000000000000000000000000008152600401610d02906115c1565b60405180910390fd5b5b60038060003373ffffffffffffffffffffffffffffffffffffffff1673ffffffffffffffffffffffffffffffffffffffff1681526020019081526020016000205411610e4957610d9a600360003373ffffffffffffffffffffffffffffffffffffffff1673ffffffffffffffffffffffffffffffffffffffff1681526020019081526020016000205461125c565b600260003373ffffffffffffffffffffffffffffffffffffffff1673ffffffffffffffffffffffffffffffffffffffff1681526020019081526020016000206000828254610de8919061164d565b92505081905550600360003373ffffffffffffffffffffffffffffffffffffffff1673ffffffffffffffffffffffffffffffffffffffff1681526020019081526020016000206000815480929190610e3f906117aa565b9190505550610d0c565b5b5b600260003373ffffffffffffffffffffffffffffffffffffffff1673ffffffffffffffffffffffffffffffffffffffff168152602001908152602001600020549550505050505090565b6000600160003373ffffffffffffffffffffffffffffffffffffffff1673ffffffffffffffffffffffffffffffffffffffff16815260200190815260200160002054905090565b6005544210610f20576040517f08c379a0000000000000000000000000000000000000000000000000000000008152600401610f1790611581565b60405180910390fd5b60008190506000915080600160003373ffffffffffffffffffffffffffffffffffffffff1673ffffffffffffffffffffffffffffffffffffffff1681526020019081526020016000206000828254610f78919061164d565b9250508190555080600080828254610f90919061164d565b925050819055506001600360003373ffffffffffffffffffffffffffffffffffffffff1673ffffffffffffffffffffffffffffffffffffffff16815260200190815260200160002081905550803373ffffffffffffffffffffffffffffffffffffffff167fe1fffcc4923d04b559f4d29a8bfc6cda04eb5b0d3c460751c2402c5c5cc9109c60405160405180910390a3600090505050565b6000600260003373ffffffffffffffffffffffffffffffffffffffff1673ffffffffffffffffffffffffffffffffffffffff1681526020019081526020016000205490506000600260003373ffffffffffffffffffffffffffffffffffffffff1673ffffffffffffffffffffffffffffffffffffffff16815260200190815260200160002081905550600760009054906101000a900473ffffffffffffffffffffffffffffffffffffffff1673ffffffffffffffffffffffffffffffffffffffff1663095ea7b333836040518363ffffffff1660e01b815260040161110e929190611558565b602060405180830381600087803b15801561112857600080fd5b505af115801561113c573d6000803e3d6000fd5b505050506040513d601f19601f820116820180604052508101906111609190611439565b50600760009054906101000a900473ffffffffffffffffffffffffffffffffffffffff1673ffffffffffffffffffffffffffffffffffffffff1663a9059cbb33836040518363ffffffff1660e01b81526004016111be929190611558565b602060405180830381600087803b1580156111d857600080fd5b505af11580156111ec573d6000803e3d6000fd5b505050506040513d601f19601f820116820180604052508101906112109190611439565b50803373ffffffffffffffffffffffffffffffffffffffff167faa1377f7ec93c239e959efa811f7b8554c036fd7a706c23e58024626a8f3db9660405160405180910390a36000905050565b600060018214156112eb5760006064601460045461127a91906116d4565b61128491906116a3565b90506000805482600160003373ffffffffffffffffffffffffffffffffffffffff1673ffffffffffffffffffffffffffffffffffffffff168152602001908152602001600020546112d591906116d4565b6112df91906116a3565b9050809250505061140a565b60028214156113785760006064601e60045461130791906116d4565b61131191906116a3565b90506000805482600160003373ffffffffffffffffffffffffffffffffffffffff1673ffffffffffffffffffffffffffffffffffffffff1681526020019081526020016000205461136291906116d4565b61136c91906116a3565b9050809250505061140a565b60038214156114055760006064603260045461139491906116d4565b61139e91906116a3565b90506000805482600160003373ffffffffffffffffffffffffffffffffffffffff1673ffffffffffffffffffffffffffffffffffffffff168152602001908152602001600020546113ef91906116d4565b6113f991906116a3565b9050809250505061140a565b600080fd5b919050565b60008151905061141e81611990565b92915050565b600081359050611433816119a7565b92915050565b60006020828403121561144b57600080fd5b60006114598482850161140f565b91505092915050565b60006020828403121561147457600080fd5b600061148284828501611424565b91505092915050565b61149481611762565b82525050565b60006114a7601c8361163c565b91506114b282611851565b602082019050919050565b60006114ca60138361163c565b91506114d58261187a565b602082019050919050565b60006114ed60238361163c565b91506114f8826118a3565b604082019050919050565b600061151060238361163c565b915061151b826118f2565b604082019050919050565b600061153360238361163c565b915061153e82611941565b604082019050919050565b611552816117a0565b82525050565b600060408201905061156d600083018561148b565b61157a6020830184611549565b9392505050565b6000602082019050818103600083015261159a8161149a565b9050919050565b600060208201905081810360008301526115ba816114bd565b9050919050565b600060208201905081810360008301526115da816114e0565b9050919050565b600060208201905081810360008301526115fa81611503565b9050919050565b6000602082019050818103600083015261161a81611526565b9050919050565b60006020820190506116366000830184611549565b92915050565b600082825260208201905092915050565b6000611658826117a0565b9150611663836117a0565b9250827fffffffffffffffffffffffffffffffffffffffffffffffffffffffffffffffff03821115611698576116976117f3565b5b828201905092915050565b60006116ae826117a0565b91506116b9836117a0565b9250826116c9576116c8611822565b5b828204905092915050565b60006116df826117a0565b91506116ea836117a0565b9250817fffffffffffffffffffffffffffffffffffffffffffffffffffffffffffffffff0483118215151615611723576117226117f3565b5b828202905092915050565b6000611739826117a0565b9150611744836117a0565b925082821015611757576117566117f3565b5b828203905092915050565b600061176d82611780565b9050919050565b60008115159050919050565b600073ffffffffffffffffffffffffffffffffffffffff82169050919050565b6000819050919050565b60006117b5826117a0565b91507fffffffffffffffffffffffffffffffffffffffffffffffffffffffffffffffff8214156117e8576117e76117f3565b5b600182019050919050565b7f4e487b7100000000000000000000000000000000000000000000000000000000600052601160045260246000fd5b7f4e487b7100000000000000000000000000000000000000000000000000000000600052601260045260246000fd5b7f4465706f7369747320617265206c6f636b656420666f72206e6f772e00000000600082015250565b7f596f75207368616c6c206e6f7420506173732100000000000000000000000000600082015250565b7f5265776172647320666f7220523320616c72656164792064697374726962757460008201527f6564210000000000000000000000000000000000000000000000000000000000602082015250565b7f5265776172647320666f7220523220616c72656164792064697374726962757460008201527f6564210000000000000000000000000000000000000000000000000000000000602082015250565b7f5265776172647320666f7220523120616c72656164792064697374726962757460008201527f6564210000000000000000000000000000000000000000000000000000000000602082015250565b61199981611774565b81146119a457600080fd5b50565b6119b0816117a0565b81146119bb57600080fd5b5056fea2646970667358221220e598ec664bd19b0e327c732b206fd249ed3af19f315bb4a7cb4b4b405d1504d864736f6c63430008040033",
  "linkReferences": {},
  "deployedLinkReferences": {}
}